{
  "contractName": "PrivateQueue",
  "abi": [
    {
      "constant": true,
      "inputs": [
        {
          "name": "",
          "type": "uint256"
        }
      ],
      "name": "transAcc",
      "outputs": [
        {
          "name": "tFrom",
          "type": "address"
        },
        {
          "name": "tTo",
          "type": "address"
        },
        {
          "name": "tValue",
          "type": "uint256"
        }
      ],
      "payable": false,
      "stateMutability": "view",
      "type": "function"
    },
    {
      "anonymous": false,
      "inputs": [
        {
          "indexed": true,
          "name": "_from",
          "type": "address"
        },
        {
          "indexed": true,
          "name": "_to",
          "type": "address"
        },
        {
          "indexed": false,
          "name": "_value",
          "type": "uint256"
        }
      ],
      "name": "Transfer",
      "type": "event"
    },
    {
      "constant": false,
      "inputs": [
        {
          "name": "_from",
          "type": "address"
        },
        {
          "name": "_to",
          "type": "address"
        },
        {
          "name": "_value",
          "type": "uint256"
        }
      ],
      "name": "transferFrom",
      "outputs": [],
      "payable": false,
      "stateMutability": "nonpayable",
      "type": "function"
    },
    {
      "constant": false,
      "inputs": [
        {
          "name": "_from",
          "type": "address"
        },
        {
          "name": "_to",
          "type": "address"
        },
        {
          "name": "_value",
          "type": "uint256"
        }
      ],
      "name": "setTransaction",
      "outputs": [],
      "payable": false,
      "stateMutability": "nonpayable",
      "type": "function"
    },
    {
      "constant": true,
      "inputs": [],
      "name": "getLength",
      "outputs": [
        {
          "name": "",
          "type": "uint256"
        }
      ],
      "payable": false,
      "stateMutability": "view",
      "type": "function"
    },
    {
      "constant": true,
      "inputs": [
        {
          "name": "_id",
          "type": "uint256"
        }
      ],
      "name": "getTransactions",
      "outputs": [
        {
          "name": "",
          "type": "uint256"
        },
        {
          "name": "",
          "type": "address"
        },
        {
          "name": "",
          "type": "address"
        }
      ],
      "payable": false,
      "stateMutability": "view",
      "type": "function"
    }
  ],
  "bytecode": "0x608060405234801561001057600080fd5b506106e5806100206000396000f3fe608060405234801561001057600080fd5b50600436106100575760003560e01c806323b872dd1461005c5780634e802a32146100ca5780635742177c1461013857806379c0b712146101e0578063be1c766b14610288575b600080fd5b6100c86004803603606081101561007257600080fd5b81019080803573ffffffffffffffffffffffffffffffffffffffff169060200190929190803573ffffffffffffffffffffffffffffffffffffffff169060200190929190803590602001909291905050506102a6565b005b610136600480360360608110156100e057600080fd5b81019080803573ffffffffffffffffffffffffffffffffffffffff169060200190929190803573ffffffffffffffffffffffffffffffffffffffff16906020019092919080359060200190929190505050610310565b005b6101646004803603602081101561014e57600080fd5b8101908080359060200190929190505050610557565b604051808481526020018373ffffffffffffffffffffffffffffffffffffffff1673ffffffffffffffffffffffffffffffffffffffff1681526020018273ffffffffffffffffffffffffffffffffffffffff1673ffffffffffffffffffffffffffffffffffffffff168152602001935050505060405180910390f35b61020c600480360360208110156101f657600080fd5b81019080803590602001909291905050506105eb565b604051808473ffffffffffffffffffffffffffffffffffffffff1673ffffffffffffffffffffffffffffffffffffffff1681526020018373ffffffffffffffffffffffffffffffffffffffff1673ffffffffffffffffffffffffffffffffffffffff168152602001828152602001935050505060405180910390f35b610290610662565b6040518082815260200191505060405180910390f35b8173ffffffffffffffffffffffffffffffffffffffff168373ffffffffffffffffffffffffffffffffffffffff167fddf252ad1be2c89b69c2b068fc378daa952ba7f163c4a11628f55a4df523b3ef836040518082815260200191505060405180910390a3505050565b61031861066c565b60405180606001604052808573ffffffffffffffffffffffffffffffffffffffff1681526020018473ffffffffffffffffffffffffffffffffffffffff1681526020018381525090506003819080600181540180825580915050906001820390600052602060002090600302016000909192909190915060008201518160000160006101000a81548173ffffffffffffffffffffffffffffffffffffffff021916908373ffffffffffffffffffffffffffffffffffffffff16021790555060208201518160010160006101000a81548173ffffffffffffffffffffffffffffffffffffffff021916908373ffffffffffffffffffffffffffffffffffffffff160217905550604082015181600201555050508273ffffffffffffffffffffffffffffffffffffffff168473ffffffffffffffffffffffffffffffffffffffff167fddf252ad1be2c89b69c2b068fc378daa952ba7f163c4a11628f55a4df523b3ef846040518082815260200191505060405180910390a380600080600254815260200190815260200160002060008201518160000160006101000a81548173ffffffffffffffffffffffffffffffffffffffff021916908373ffffffffffffffffffffffffffffffffffffffff16021790555060208201518160010160006101000a81548173ffffffffffffffffffffffffffffffffffffffff021916908373ffffffffffffffffffffffffffffffffffffffff1602179055506040820151816002015590505060026000815480929190600101919050555050505050565b60008060008060008581526020019081526020016000206002015460008086815260200190815260200160002060000160009054906101000a900473ffffffffffffffffffffffffffffffffffffffff1660008087815260200190815260200160002060010160009054906101000a900473ffffffffffffffffffffffffffffffffffffffff169250925092509193909250565b600381815481106105f857fe5b90600052602060002090600302016000915090508060000160009054906101000a900473ffffffffffffffffffffffffffffffffffffffff16908060010160009054906101000a900473ffffffffffffffffffffffffffffffffffffffff16908060020154905083565b6000600254905090565b6040518060600160405280600073ffffffffffffffffffffffffffffffffffffffff168152602001600073ffffffffffffffffffffffffffffffffffffffff16815260200160008152509056fea165627a7a723058205fde230eb2eb6759339ff9bcd2a7027712c1f2d691f011bce6b6c7d4a93c69b90029",
  "source": "pragma solidity ^0.5.0;\r\n\r\n\r\ncontract PrivateQueue {\r\n\r\n    struct Transaction {\r\n        address tFrom;\r\n        address tTo;\r\n        uint256 tValue;\r\n    }\r\n    struct Users {\r\n        address publicA;\r\n        address privateA;\r\n    }\r\n    mapping (uint256 => Transaction) transactions;\r\n    mapping (uint256 => mapping (uint256 => Transaction)) internal listOfTransactions;\r\n    uint256 tranLength;\r\n    Transaction[] public transAcc;\r\n\r\n\r\n    // --- Events ---\r\n    event Transfer(address indexed _from ,address indexed _to, uint256 _value);\r\n\r\n    function transferFrom(address _from, address _to, uint256 _value) public {\r\n        emit Transfer(_from, _to, _value);\r\n    }\r\n\r\n    function setTransaction( address  _from, address _to, uint256 _value) public {\r\n        Transaction memory myTransaction = Transaction(_from,_to,_value);\r\n        transAcc.push(myTransaction);\r\n        emit Transfer(_from, _to, _value);\r\n        transactions[tranLength] = myTransaction;\r\n        tranLength++;\r\n    }\r\n\r\n    function getLength() public view returns (uint256) {\r\n        return tranLength;\r\n    }\r\n\r\n    function getTransactions(uint256 _id)  public view returns (uint256, address, address) {\r\n        return (transactions[_id].tValue, transactions[_id].tFrom, transactions[_id].tTo);\r\n    }\r\n\r\n}",
  "sourcePath": "C:/Users/esprit/eth-bridge-pub/contracts/PrivateQueue.sol",
  "compiler": {
    "name": "solc",
    "version": "0.5.8+commit.23d335f2.Emscripten.clang"
  },
  "schemaVersion": "3.0.14",
  "updatedAt": "2019-08-30T11:35:18.482Z",
  "devdoc": {
    "methods": {}
  },
  "userdoc": {
    "methods": {}
  }
}